:020000040000FA
:060000000A128A11F52F1F
:10000A004130831203139F00F030831603139F00BD
:10001A0008004230F300C730F200CC30F100CD3096
:10002A00F000831203132308F7002208F6002108C0
:10003A00F5002008F4000A128A15A2260A128A116B
:10004A0003182828292846284430F3007930F2007A
:10005A00F930F1009A30F000831203132308F700F5
:10006A002208F6002108F5002008F4000A128A1571
:10007A00A2260A128A11031C432844284628013062
:10008A00B7284130F3001E30F2006630F1006630C6
:10009A00F000831203132308F7002208F600210850
:1000AA00F5002008F4000A128A15A2260A128A11FB
:1000BA000318602861287E284230F300C730F20016
:1000CA00CC30F100CD30F000831203132308F7007F
:1000DA002208F6002108F5002008F4000A128A1501
:1000EA00A2260A128A11031C7B287C287E28023049
:1000FA00B728831203132308F3002208F200210809
:10010A00F1002008F0000030F7000030F60000305F
:10011A00F5000030F4000A128A15A2260A128A1182
:10012A00031C98289928B6284130F3001E30F200A3
:10013A006630F1006630F000831203132308F700DB
:10014A002208F6002108F5002008F4000A128A1590
:10015A00A2260A128A11031CB328B428B62803302F
:10016A00B72800300800FF30831603138500FF30DC
:10017A008600870188018316031789010A128A11EA
:10018A0005200A128A11003083120313A600A70061
:10019A000A128A15FA240A128A11831203132908E9
:1001AA00C3002808C2002708C1002608C0000A1296
:1001BA008A1526260A128A11831203134008DA00C6
:1001CA005A08EC000618EA28EB28F5286C08DA0029
:1001DA005A08F00000300A128A1574240A128A1189
:1001EA0083120313061AFA28FB280229F0010030A9
:1001FA000A128A1574240A128A1100300A128A1500
:10020A0036240A128A1183120313DA00DB01DC0195
:10021A00DD015D08F5005C08F4005B08F3005A088C
:10022A00F20000300A128A1544270A128A11750848
:10023A0083120313C3007408C2007308C100720852
:10024A00C0000A128A1526260A128A11831203137B
:10025A004008DE005E08EB004430C3007F30C20075
:10026A00C030C1000030C0004530A9009C30A80051
:10027A004030A7000030A6006B08DA00DB01DC0181
:10028A00DD015D08F5005C08F4005B08F3005A081C
:10029A00F20001300A128A1544270A128A117508D7
:1002AA0083120313AD007408AC007308AB00720824
:1002BA00AA000A128A1194240A128A1183120313B9
:1002CA002908C7002808C6002708C5002608C40050
:1002DA000A128A11B7220A128A11831203134308D7
:1002EA00E2004208E1004108E0004008DF00413036
:1002FA00C3002030C2000030C1000030C0006208D4
:10030A00C7006108C6006008C5005F08C4000A1279
:10031A008A11B7220A128A11831203134308E600CC
:10032A004208E5004108E4004008E3006608D600F8
:10033A006508D5006408D4006308D3000A128A1538
:10034A00BC250A128A11C8280A128A1100288312A7
:10035A0003134C08A3004B08A2004A08A10049084D
:10036A00A0000A128A110E200A128A11831203139C
:10037A00CD004D08D2005208031DC429C529D92928
:10038A004C08C3004B08C2004A08C1004908C00013
:10039A000A128A1526260A128A11831203134108A1
:1003AA00CF004008CE006B2A5203031DDD29DE2947
:1003BA00092A4C08AD004B08AC004A08AB004908B2
:1003CA00AA004130A9002030A8000030A700003060
:1003DA00A6000A128A1194240A128A11831203139C
:1003EA002908C3002808C2002708C1002608C0003F
:1003FA000A128A1526260A128A1183120313410841
:10040A00CF004008CE006B2A02305206031D0E2A86
:10041A000F2A3A2A4C08AD004B08AC004A08AB0038
:10042A004908AA004230A900C830A8000030A70035
:10043A000030A6000A128A1194240A128A11831221
:10044A0003132908C3002808C2002708C100260888
:10045A00C0000A128A1526260A128A118312031369
:10046A004108CF004008CE006B2A03305206031D14
:10047A003F2A402A6B2A4C08AD004B08AC004A08B8
:10048A00AB004908AA004430A9007A30A80000301D
:10049A00A7000030A6000A128A1194240A128A11AF
:1004AA00831203132908C3002808C2002708C100C1
:1004BA002608C0000A128A1526260A128A118312F1
:1004CA0003134108CF004008CE006B2AD001D101A6
:1004DA000A30F0000030F100831203134F08F300D2
:1004EA004E08F2000A128A15A1240A128A1170080B
:1004FA0083120313CD005008673E84004D0883130E
:10050A0080000A30F0000030F1004F08F3004E0876
:10051A00F2000A128A1555250A128A1171088312E5
:10052A000313CF007008CE000130D0070318D10A98
:10053A000030D1075108803AFF0080307F02031D46
:10054A00A82A04305002031CAB2AAC2A6D2A0A30AE
:10055A0083120313CD005208673E84004D088313AB
:10056A00800708008312031347088039C800480827
:10057A00D1004708C8004807C9004908D800C61F63
:10058A00C72AC82AC92A581458080319CD2ACE2AB4
:10059A00DE2A580A031DD22AD32ADB2A0030C700D2
:1005AA000030C6000030C5000030C400C617C701BD
:1005BA00E62A0030C7000030C6000030C50000300F
:1005CA00C40043088039C8004808D1064308C80057
:1005DA004807C9004908D900C21FF42AF52AF62A91
:1005EA00591459080319FA2AFB2A0B2B590A031D15
:1005FA00FF2A002B082B0030C3000030C200003055
:10060A00C1000030C000C217C301132B0030C30061
:10061A000030C2000030C1000030C000430842046C
:10062A0041044004031D1A2B1B2B342B0030C70036
:10063A000030C6000030C5000030C4008030C60457
:10064A007F30C7045108C8004808C7044708C300D8
:10065A004608C2004508C1004408C000932C580847
:10066A00031D382B392B422B0030C3000030C20047
:10067A000030C1000030C000932C5808C800C901DE
:10068A004908CB0059084802CA00031CCB034A0890
:10069A007F3ED2004B080318013E003ED3004708B4
:1006AA00D0004608CF004508CE004408CD000030EF
:1006BA00C7000030C6000030C5000030C40000305A
:1006CA00D7000030D6000030D5000030D400D90160
:1006DA00B82B59080319722B732B932B0130C800BE
:1006EA000310CD0DCE0DCF0DD00DC80B752B0130DB
:1006FA00C8000310C40DC50DC60DC70DC80B7E2B4F
:10070A00D71F882B892B8A2B44140130C800031069
:10071A00D40DD50DD60DD70DC80B8C2B430850021E
:10072A00031DA12B42084F02031DA12B41084E02B3
:10073A00031DA12B40084D02031CA42BA52BB42B8F
:10074A0057174008CD024108031C410FCE02420848
:10075A00031C420FCF024308031C430FD00201308F
:10076A00C8004808D9071A305902031CBD2BBE2BF2
:10077A006E2B50084F044E044D040319C52BC62B8B
:10078A00E52B5414E52B0130C8000310C40DC50D28
:10079A00C60DC70DC80BCA2BD71FD42BD52BD62BEA
:1007AA0044140130C8000310D40DD50DD60DD70D51
:1007BA00C80BD82BFF30D2070318D30AFF30D30750
:1007CA00C61FE82BE92BC82BD901D71FED2BEE2B1F
:1007DA000A2CFF305405C800FF305505C900FF3008
:1007EA005605CA007F305705CB004B084A04490416
:1007FA0048040319012C022C052CD901D90A0A2C08
:10080A00441C082C092C0A2C022C590803190E2CFA
:10081A000F2C402C0130C407003003180130C507E3
:10082A00003003180130C607003003180130C7072B
:10083A00471C202C212C402C4408C8004508C9001C
:10084A004608CA004708CB000130CC004B0DCB0C40
:10085A00CA0CC90CC80CCC0B2B2C4B08C7004A0875
:10086A00C6004908C5004808C4000130D207031869
:10087A00D30A0030D3075308803AFF0080307F0242
:10088A00031D492CFF305202031C4C2C4D2C5B2CAF
:10089A00FF3083120313D2000030D3000030C700A8
:1008AA000030C6000030C5000030C40083120313B4
:1008BA005308803AFF0080307F02031D662C013006
:1008CA0052020318692C6A2C772C83120313D20163
:1008DA00D3010030C7000030C6000030C500003028
:1008EA00C400D101831203135208C8004808D80073
:1008FA00581C802C812C832CC617872C7F30C8006B
:10090A004808C6055808C8000310480CC900490819
:10091A00C7005108C8004808C7042B2B08008312D7
:10092A00031329088039AE002E08B3002908AE0047
:10093A002E07AF002F08B900A81FA42CA52CA62C9F
:10094A00391439080319AA2CAB2CBA2C390A031DFD
:10095A00AF2CB02CB82C0030A9000030A800003011
:10096A00A7000030A600A817C22C0030A90000304A
:10097A00A8000030A7000030A6002D088039AE007C
:10098A002E08B3062D08AE002E07AF002F08B800B8
:10099A00AC1FD02CD12CD22C381438080319D62CE1
:1009AA00D72CE62C380A031DDB2CDC2CE42C003077
:1009BA00AD000030AC000030AB000030AA00AC172C
:1009CA00EE2C0030AD000030AC000030AB0000303F
:1009DA00AA0038080319F22CF32CF82C3908031D45
:1009EA00F72CF82C012D0030A9000030A8000030A7
:1009FA00A7000030A600F42F2608AE002E08F0004B
:100A0A002C080A128A154D240A128A1171088312B7
:100A1A000313BF007008BE003E08AE00AF01B0016C
:100A2A00B1013108B7003008B6002F08B5002E080A
:100A3A00B4003F08AE00AF01B001B1013108BD00FA
:100A4A003008BC002F08BB002E08BA002708AE00E9
:100A5A002E08F0002B080A128A154D240A128A1150
:100A6A00710883120313BF007008BE003E08AE006F
:100A7A00AF01B001B1012E08B4072F080311031802
:100A8A00013E0319492DB507300803110318013E29
:100A9A000319502DB607310803110318013E031933
:100AAA00572DB7073F08AE00AF01B001B1012E08BC
:100ABA00BA072F0803110318013E0319652DBB0756
:100ACA00300803110318013E03196C2DBC073108C5
:100ADA0003110318013E0319732DBD072808AE0040
:100AEA002E08F0002A080A128A154D240A128A11C1
:100AFA00710883120313BF007008BE003E08AE00DF
:100B0A00AF01B001B1012E08B4072F080311031871
:100B1A00013E0319912DB507300803110318013E50
:100B2A000319982DB607310803110318013E03195A
:100B3A009F2DB7073F08AE00AF01B001B1012E08E3
:100B4A00BA072F0803110318013E0319AD2DBB077D
:100B5A00300803110318013E0319B42DBC073108EC
:100B6A0003110318013E0319BB2DBD070830AE005F
:100B7A000310B40DB50DB60DB70DAE0BBD2D27087C
:100B8A00AE002E08F0002A080A128A154D240A120D
:100B9A008A11710883120313BF007008BE003E0851
:100BAA00AE003F08AF00B001B1012E08B4072F080C
:100BBA0003110318013E0319E32DB5073008031189
:100BCA000318013E0319EA2DB60731080311031869
:100BDA00013E0319F12DB7072608AE002E08F000D2
:100BEA002B080A128A154D240A128A1171088312D7
:100BFA000313BF007008BE003E08AE003F08AF00F6
:100C0A00B001B1012E08B4072F0803110318013EE1
:100C1A000319102EB507300803110318013E0319F2
:100C2A00172EB607310803110318013E03191E2EA9
:100C3A00B7070830AE000310B40DB50DB60DB70DE9
:100C4A00AE0B202E2608AE002E08F0002A080A1243
:100C5A008A154D240A128A11710883120313BF00E0
:100C6A007008BE003E08AE003F08AF00B001B101F7
:100C7A002E08B4072F0803110318013E0319462E44
:100C8A00B507300803110318013E03194D2EB607A4
:100C9A00310803110318013E0319542EB707270818
:100CAA00AE002E08F0002C080A128A154D240A12EA
:100CBA008A11710883120313BF007008BE003E0830
:100CCA00AE003F08AF00B001B1012E08BA072F08E5
:100CDA0003110318013E0319732EBB0730080311D1
:100CEA000318013E03197A2EBC07310803110318B1
:100CFA00013E0319812EBD072808AE002E08F00018
:100D0A002B080A128A154D240A128A1171088312B5
:100D1A000313BF007008BE003E08AE003F08AF00D4
:100D2A00B001B1012E08BA072F0803110318013EBA
:100D3A000319A02EBB07300803110318013E03193B
:100D4A00A72EBC07310803110318013E0319AE2E62
:100D5A00BD072808AE002E08F0002C080A128A15D2
:100D6A004D240A128A11710883120313BF007008F6
:100D7A00BE003E08AE003F08AF00B001B101083026
:100D8A000310AE0DAF0DB00DB10DFF3E031DC52E04
:100D9A002E08BA072F0803110318013E0319D62E8D
:100DAA00BB07300803110318013E0319DD2EBC07E7
:100DBA00310803110318013E0319E42EBD07340854
:100DCA00AE003508AF003608B0003708B100183059
:100DDA000310B10CB00CAF0CAE0CFF3E031DED2E90
:100DEA002E08BA072F0803110318013E0319FE2E15
:100DFA00BB07300803110318013E0319052FBC076E
:100E0A00310803110318013E03190C2FBD070830DE
:100E1A00AE000310B40DB50DB60DB70DAE0B0E2F07
:100E2A0039083807AE00AF01AF0D2E08823EBE006A
:100E3A002F080318013EFF3EBF00402F0130AE00CD
:100E4A000310BA0DBB0DBC0DBD0DAE0B252FB71F80
:100E5A002F2F302F312F3A140130AE000310B40D6A
:100E6A00B50DB60DB70DAE0B332FFF30BE07031805
:100E7A00BF0AFF30BF07BC1F432F442F232FB801DF
:100E8A00B71F482F492F652FFF303405AE00FF30BA
:100E9A003505AF00FF303605B0007F303705B100A9
:100EAA00310830042F042E0403195C2F5D2F602FA4
:100EBA00B801B80A652F3A1C632F642F652F5D2F7E
:100ECA0038080319692F6A2F9B2F0130BA0700309F
:100EDA0003180130BB07003003180130BC0700308B
:100EEA0003180130BD073D1C7B2F7C2F9B2F3A082E
:100EFA00AE003B08AF003C08B0003D08B10001302D
:100F0A00B200310DB10CB00CAF0CAE0CB20B862F87
:100F1A003108BD003008BC002F08BB002E08BA00FB
:100F2A000130BE070318BF0A0030BF073F08803AE6
:100F3A00FF0080307F02031DA42FFF303E02031CF6
:100F4A00A72FA82FB32F7F3083120313BD00803041
:100F5A00BC000030BB000030BA00E82F8312031334
:100F6A003F08803AFF0080307F02031DBE2F013008
:100F7A003E020318C12FC22FCE2F00308312031353
:100F8A00BD000030BC000030BB000030BA00B30125
:100F9A00E82F831203133E08AE002E08B900FF3073
:100FAA00BA05FF30BB057F30BC050030BD05391CD2
:100FBA00DF2FE02FE12FBC173908AE0003102E0CEB
:100FCA00AF002F08BD003308AE002E08BD043D084F
:100FDA00A9003C08A8003B08A7003A08A600080098
:100FEA0083120313E701E801E901EA01EB01830136
:100FFA000A128A11B82808308A000408840A82076B
:10100A000034C034F934A434B0349934923482347C
:10101A00F8348034903440347934243430341934F8
:0A102A00123402347834003410341C
:10185200F0007008013E84000A128A1500200A1264
:101862008A158312031387000800F10064008316AF
:1018720003178C183D2C3E2C372C7108831203174A
:101882008D003F30F0007008831603178C050C148E
:10189200831203170C080800F800F401F501700820
:1018A200F200F3017208F6007308F700781C5A2C54
:1018B2005B2C612C7608F4070318F50A7708F50704
:1018C20001300310F60DF70DFF3E031D622C0310CD
:1018D200F80C7808031D6E2C6F2C572C7508F1003C
:1018E2007408F0000800F200831603178C187A2C93
:1018F2007B2C752C7208831203178D0070088C00E4
:101902003F30F1007108831603178C05831203130D
:1019120003108B1F8D2C8E2C8F2C03148B1383168C
:1019220003170C1555308D00AA308D008C140C1144
:1019320083120313031C9E2C9F2CA02C8B170800D0
:10194200F601F31FA52CA62CAD2CF209F309F20A1D
:101952000319F30AF601F60AF11FB02CB12CB62CCA
:10196200F009F109F00A0319F10A70087104031968
:10197200BB2CBC2CEB2CF501F50ACA2C0130031050
:10198200F00DF10DFF3E031DC02C0130F400740870
:10199200F507F11FCD2CCE2CBF2C71087302031D4D
:1019A200D42C70087202031CD72CD82CDE2C7008A1
:1019B200F2027108031CF303F30201300310F10C6D
:1019C200F00CFF3E031DDF2C0130F502031DEA2C53
:1019D200EB2CCE2C76080319EF2CF02CF52CF20907
:1019E200F309F20A0319F30A7308F1007208F0000E
:1019F200080000308312031327020E300319260257
:101A0200031C042D052D0E2D0030A9000030A80066
:101A12000030A7000030A600542DC130FA007A0829
:101A22009F052608FA0001300310FA0DFF3E031D40
:101A3200152D03107A0DFB007B089F040630FB0076
:101A42003030FA00FA0B232DFB0B232D00008312FA
:101A520003139F149F182E2D2F2D2B2D1E08FA00D5
:101A6200FB017A08FB00FA01831603131E087A07AA
:101A7200F2000030031801307B07F300F401F31B7E
:101A8200F4037408F50001300A128A1544270A1279
:101A92008A15750883120313A9007408A800730835
:101AA200A7007208A6000800F601F11F592D5A2D51
:101AB200612DF009F109F00A0319F10AF601F60A9B
:101AC200F31F642D652D6E2DF209F309F20A031935
:101AD200F30A0130F4007408F606F701F801700801
:101AE20071040319752D762DAD2DF501F50A842D9E
:101AF20001300310F00DF10DFF3E031D7A2D013070
:101B0200F4007408F507F11F872D882D792D013017
:101B12000310F70DF80DFF3E031D892D71087302A6
:101B2200031D952D70087202031C982D992DA02D6E
:101B32007008F2027108031CF303F30277140130F8
:101B42000310F10CF00CFF3E031DA12D0130F50234
:101B5200031DAC2DAD2D882D76080319B12DB22DA4
:101B6200B72DF709F809F70A0319F80A7808F100FE
:101B72007708F0000800831203135608CC005508BA
:101B8200CB005408CA005308C9000A128A11AC21BA
:101B92000A128A158312031367080A128A15292466
:101BA2000A128A1583120313881503308312031352
:101BB200D8009730D700D70BDC2DD80BDC2D831241
:101BC2000313881168080A128A1529240A128A1531
:101BD200831203130815033083120313D8009730BE
:101BE200D700D70BF22DD80BF22D83120313081155
:101BF20069080A128A1529240A128A158312031304
:101C02008814033083120313D8009730D700D70B00
:101C1200082ED80B082E8312031388106A080A12A2
:101C22008A1529240A128A15831203130814033011
:101C320083120313D8009730D700D70B1E2ED80B70
:101C42001E2E8312031308100800031083120313BD
:101C5200420D430DC4004408FD007D08031D322ED1
:101C6200332E3C2E0030C3000030C2000030C100D1
:101C72000030C000A12E4008C4004108C50042083F
:101C8200C6004308C7001F300310C70CC60CC50CA2
:101C9200C40CFF3E031D452E4408C8004808FC0042
:101CA200C217FF30C005FF30C105FF30C20500304A
:101CB200C3059630FD02FD1F5F2E602E7A2E7D0831
:101CC200803A973E0318662E672E682E332E013017
:101CD2000310C30CC20CC10CC00CFF3E031D692EC5
:101CE2000130C4004408FD07031D782E792E682EAA
:101CF200912E20307D02031C7F2E802E8C2E332EBF
:101D02000130C4000310C00DC10DC20DC30DC40BC0
:101D1200832E0130FD027D08031D902E912E812E0F
:101D22007C080319952E962EA12EC009C109C2095D
:101D3200C309C00A0319C10A0319C20A0319C30A53
:101D4200080000307005F80000307105F90080309D
:101D52007205FA007F307305FB007B087A04790470
:101D62007804031DB52EB62EBE2E0030F3000030CF
:101D7200F2000030F1000030F00000307405F8008D
:101D820000307505F90080307605FA007F3077055E
:101D9200FB007B087A0479047804031DD12ED22E2D
:101DA200DA2E0030F7000030F6000030F500003087
:101DB200F400F31FDD2EDE2E022F0030F80000307B
:101DC200F9000030FA008030FB007008F802710858
:101DD200031C710FED2EEE2EF9027208031C720F16
:101DE200F32EF42EFA027308031C730FF92EFA2E47
:101DF200FB027B08F3007A08F2007908F100780808
:101E0200F000F71F052F062F2A2F0030F8000030B0
:101E1200F9000030FA008030FB007408F8027508FF
:101E2200031C750F152F162FF9027608031C760F67
:101E32001B2F1C2FFA027708031C770F212F222F4A
:101E4200FB027B08F7007A08F6007908F5007808AB
:101E5200F4008030F3068030F70677087302031D22
:101E62003C2F76087202031D3C2F75087102031D78
:101E72003C2F7408700203183F2F402F422F03108B
:101E8200432F0314080083120313A0002008031930
:101E92004B2F4C2F602FF51F4F2F502F602F7209A1
:101EA200A2007309A3007409A4007509A500A20A7F
:101EB2000319A30A0319A40A0319A50A682F7508AE
:101EC200A5007408A4007308A3007208A200750894
:101ED200740473047204031D6F2F702F792F003066
:101EE200F5000030F4000030F3000030F200FF2F64
:101EF2009630F6007608A1008B2F0130F6007608A6
:101F0200A10701300310A50CA40CA30CA20CFF3EE8
:101F1200031D832FFE302505031D902F912F7E2F49
:101F2200AD2F0130F6007608A1070130A20700307C
:101F320003180130A307003003180130A407003052
:101F420003180130A50701300310A50CA40CA30C43
:101F5200A20CFF3E031DA52FFF302505031DB22F46
:101F6200B32F922FBF2F0130A1020130F6000310D0
:101F7200A20DA30DA40DA50DF60BB82FA41BC22F05
:101F8200C32FC92F023021020318C82FC92FB42F23
:101F92002118CC2FCD2FD52FFF30A205FF30A3055E
:101FA2007F30A405FF30A5050310A10C2108F6001F
:101FB200F701F801F90118300310F60DF70DF80DCD
:101FC200F90DFF3E031DDD2F7608A2047708A30456
:101FD2007808A4047908A50420080319F12FF22F28
:101FE200F72FF51FF52FF62FF72FA5172508F50068
:0E1FF2002408F4002308F3002208F20008007F
:04400E00FA23FF3F53
:00000001FF
