:020000040000FA
:100000000A128A11EB2FFF1B0D2883137F18831709
:100010000008840A0319FF0A080000308A00040857
:10002000840A82070034543465346D347034653486
:100030007234613474347534723465343A34003453
:10004000203420344534723472346F3472342134A5
:06005000203420340034CE
:100602003034303430342E343034303430343034CA
:100612002034433400347E088A007F0882000A12A4
:100622008A110C230A128A118000840A04087D06AA
:1006320003190034FF0A0319FE0A102BF300F40118
:100642007308F200740A272B0310F20CFF3E031DFD
:10065200252B72080A128A113B230A128A110130D1
:10066200F2007208F40708307402031C392B3A2B8B
:10067200212B0800F1008312031386108316031343
:100682008610432B442B7118472B4B2B83120313D9
:1006920086144E2B8312031386103530F000F00BB4
:1006A200502B831603138614562B572B0800F30185
:1006B200F4010A128A117A230A128A1100300318ED
:1006C2000130F100740A672B0310F10DFF3E031D88
:1006D200652B7108F2007208F3040130F100710811
:1006E200F40708307402031C772B782B5A2B7308FB
:1006F2000800831203138610831603138610812BBE
:10070200822B8316031386140330F000F00B872B21
:10071200831203133410861C8F2B34144230F000E2
:10072200F00B912B0000831203133418992B9A2B90
:100732009C2B03109D2B03140800F401F501701C7F
:10074200A32BA42BAA2B7208F4070318F50A73082B
:10075200F50701300310F20DF30DFF3E031DAB2B25
:1007620001300310F10CF00CFF3E031DB22B700898
:100772007104031DBD2BBE2BA02B7508F10074085C
:10078200F0000800831203138610831603138610E9
:10079200C730F000CC2BF00BCB2BCF2BD02B8316FA
:1007A200031386144230F000F00BD52B00008312A5
:1007B20003138618DD2BDE2BE72B9F30F000E12B95
:1007C200F00BE02BE42BE52B0314E82B03100800BD
:1007D200F40083120313B4107408F20004300310FF
:1007E200F20CFF3E031DF02B72080A128A117025CB
:1007F2000A128A1174080A128A1170250A128A11C1
:1008020074030319052C062C0C2C02307406031DEC
:100812000B2C0C2C152C0630F3003030F200F20BAE
:10082200102CF30B102C00000800F800382C78086C
:10083200BF3E0A128A11E9230A128A114B2C780848
:10084200933E0A128A11E9230A128A114B2C780864
:10085200D33E0A128A11E9230A128A114B2C780814
:100862007F3E0A128A11E9230A128A114B2C75085B
:10087200F600F7017708003A0319402C302C76086D
:10088200023A0319182C013A0319202C073A0319CA
:10089200282C302C0800831203132B082C04031974
:1008A200532C542C832CB001B00A622C013003105B
:1008B200AB0DAC0DFF3E031D582C0130AF002F08CD
:1008C200B007AC1F652C662C572C2C082E02031D7A
:1008D2006C2C2B082D02031C6F2C702C762C2B08F1
:1008E200AD022C08031CAE03AE0201300310AC0CA7
:1008F200AB0CFF3E031D772C0130B002031D822C8E
:10090200832C662C2E08AC002D08AB000800FB01DE
:10091200FC017608770403198F2C902CC72CFD015B
:10092200FD0A9E2C01300310F60DF70DFF3E031D4C
:10093200942C0130FA007A08FD07F71FA12CA22C93
:10094200932C01300310FB0DFC0DFF3E031DA32C65
:1009520077087902031DAF2C76087802031CB22CAB
:10096200B32CBA2C7608F8027708031CF903F902B3
:100972007B1401300310F70CF60CFF3E031DBB2C59
:100982000130FD02031DC62CC72CA22C7C08F700E7
:100992007B08F6000800F50183120313B414012D3D
:1009A20075087207840073080318730AFF000A129D
:1009B2008A1103200A128A11F40004300310F40C85
:1009C200FF3E031DDF2C74080A128A1170250A12D9
:1009D2008A1175087207840073080318730A831258
:1009E2000313FF000A128A1103200A128A110A1243
:1009F2008A1170250A128A110130F4007408F50771
:100A020075087207840073080318730A83120313AC
:100A1200FF000A128A1103200A128A11003A031DEA
:100A2200132D142DD12C0800F7000A128A11C323AA
:100A32000A128A1103181E2D1F2D212D03106F2D4E
:100A4200CC300A128A111F230A128A1144300A1268
:100A52008A111F230A128A110A128A1158230A12B2
:100A62008A11003A0319362D372D2D2D0A128A11BB
:100A7200C3230A128A1103183F2D402D412D1F2D29
:100A8200CC300A128A111F230A128A11BE300A12AE
:100A92008A111F230A128A110A128A1158230A1272
:100AA2008A11F500F6017708840075088313800027
:100AB200840A760880000A128A1158230A128A11BF
:100AC200F500F6017508F600F5017708840075084F
:100AD20083138004840A7608800403140800F1005A
:100AE20083120313B418762D7A2D8312031308147C
:100AF2007D2D8312031308107118802D842D83120B
:100B020003130815872D8312031308117108F000CF
:100B120001300310F00CFF3E031D8A2D7018922D38
:100B2200962D831203138815992D831203138811AE
:100B32007108F00002300310F00CFF3E031D9C2DE3
:100B42007018A42DA82D831203130816AB2D83123F
:100B5200031308127108F00003300310F00CFF3E7B
:100B6200031DAE2D7018B62DBA2D831203138816ED
:100B7200BD2D8312031388128810BF2D8312031315
:100B82008814C32D8312031388104230F000F00B37
:100B9200C82D0000080083120313B4100810881037
:100BA200081188110812881283160313081088107E
:100BB20008118811081288126830F600E430F50036
:100BC200F50BE12DF60BE12D000003300A128A111C
:100BD200E9230A128A110D30F600FB30F500F50BFD
:100BE200F02DF60BF02DF52D03300A128A11E923B0
:100BF2000A128A110D30F600FB30F500F50BFF2DBD
:100C0200F60BFF2D042E03300A128A11E9230A1271
:100C12008A110D30F600FB30F500F50B0E2EF60BA7
:100C22000E2E132E02300A128A11E9230A128A1199
:100C32000D30F600FB30F500F50B1D2EF60B1D2EC8
:100C4200222E28300A128A11E9230A128A118230CE
:100C5200F600DD30F500F50B2C2EF60B2C2E312E86
:100C62000C300A128A11E9230A128A118230F60024
:100C7200DD30F500F50B3B2EF60B3B2E402E0130FE
:100C82000A128A11E9230A128A118230F600DD3033
:100C9200F500F50B4A2EF60B4A2E4F2E06300A129D
:100CA2008A11E9230A128A118230F600DD30F5003A
:100CB200F50B592EF60B592E5E2E080083160317DC
:100CC20089010B3083120313B3002630B2005D306A
:100CD200B100B10B6A2EB20B6A2EB30B6A2E0A1246
:100CE2008A11CC250A128A11F501F50A03300A127B
:100CF2008A1116240A128A110130F2008030F300A0
:100D02000A128A11CC240A128A11DF3083120313C9
:100D1200B1003108A80035300A128A1115250A12CD
:100D22008A11031C952E962EC42F83120313B61F0D
:100D32009B2E9C2EA62E2D30B1003108A000B509A5
:100D4200B609B50A0319B60AC32E3608B200350829
:100D5200B10004300310B20CB10CFF3E031DAB2EE8
:100D620000303202643003193102031CB92EBA2E4C
:100D7200BF2E3130B1003108A000C32E2030B100A7
:100D82003108A0000A30AB000030AC000A30F60097
:100D92000030F700350E0F39F800360EF039F8043E
:100DA200360E0F39F9000A128A1188240A128A11A2
:100DB200770883120313AE007608AD000A128A1177
:100DC2004C240A128A11831203132B08303EB100FD
:100DD2003108A1000A30AB000030AC00350E0F39EB
:100DE200AD00360EF039AD04360E0F39AE000A12E0
:100DF2008A114C240A128A11831203132B08303EE3
:100E0200B1003108A200E830F6000330F7000F30DD
:100E12003505F00000303605F1007130F200023085
:100E2200F3000A128A119E230A128A117108F9002C
:100E32007008F8000A128A1188240A128A117608A8
:100E4200303E83120313B1003108A4000A30AB0014
:100E52000030AC006430F6000030F7000F3035058A
:100E6200F00000303605F1007130F2000230F3007C
:100E72000A128A119E230A128A117108F900700857
:100E8200F8000A128A1188240A128A11770883123A
:100E92000313AE007608AD000A128A114C240A121E
:100EA2008A11831203132B08303EB1003108A500CA
:100EB2000A30AB000030AC000A30F6000030F70018
:100EC2000F303505F00000303605F1007130F200C8
:100ED2000230F3000A128A119E230A128A11710843
:100EE200F9007008F8000A128A1188240A128A117D
:100EF200770883120313AE007608AD000A128A1136
:100F02004C240A128A11831203132B08303EB100BB
:100F12003108A6000A30AB000030AC000F303505B6
:100F2200F00000303605F1007130F2000230F300BB
:100F32000A128A119E230A128A117108831203135C
:100F4200AE007008AD000A128A114C240A128A11EE
:100F5200831203132B08303EB1003108A700023080
:100F6200B1003108F50004300A128A1116240A125F
:100F72008A112030F2000030F3000A128A11CC24C8
:100F82000A128A11D92F023083120313B1003108D9
:100F9200F50004300A128A1116240A128A110E3040
:100FA200F2008030F3000A128A11CC240A128A114C
:100FB2000B3083120313B3002630B2005D30B10050
:100FC200B10BE12FB20BE12FB30BE12F8C2E0A12E2
:100FD2008A11002883132B30FD000330FE000130FC
:100FE200FF00203084000A128A1110230A128A118B
:0E0FF200B501B601B40183010A128A115F2E07
:04400E000020FF3E51
:00000001FF
