:020000040000FA
:100000000A128A11FC2F00308A000408840A820731
:1000100000344734693461346F34203474346934C3
:1000200065347034203455344134523454342034DF
:10003000643461342034643475346F346334203470
:100040006B3468346F3469342034743461346F3401
:10005000003420344C34453444342D343E34203480
:100060004F34463446342034003420344C34453444
:10007000443420342D343E3420344F344E34203434
:0200800000344A
:100D5000F000831203130C1EAE2EAF2EA92E7008C6
:100D60009900080083120313981CB72EB82EBA2ED0
:100D7000181218168C1EBD2EBE2EBA2E1A08080088
:100D8000F200D22E720884000A128A1103200A127D
:100D90008A110A128A11A8260A128A110130F1005A
:100DA0007108F207720884000A128A1103200A12DD
:100DB0008A11003A031DDD2EDE2EC22E0800831696
:100DC000031307138717831203132908F300280856
:100DD000F2002708F1002608F0000030F700133079
:100DE000F6001230F500D030F4000A128A115F27A5
:100DF0000A128A117008FF3E831603139900181512
:100E0000181283120313981783160313981683126C
:100E100003131816831603131813831203131813DE
:100E20000800831603138601003083120313A90000
:100E30000030A8002530A7008030A6000A128A11D1
:100E4000DF260A128A1101300A128A11C0260A12FC
:100E50008A110A128A11B2260A128A11F900790837
:100E6000FA0031307A06031D362F372F462F8312B2
:100E7000031386152D300A128A11C0260A128A1110
:100E80000A300A128A11A8260A128A1130307A060C
:100E9000031D4B2F4C2F292F831203138611213052
:100EA0000A128A11C0260A128A110A300A128A11FD
:100EB000A8260A128A11292F0A128A1100288312E1
:100EC0000313A101F31F652F662F732FF009F1099A
:100ED000F209F309F00A0319F10A0319F20A0319D6
:100EE000F30AA101A10AF71F762F772F862FF409A5
:100EF000F509F609F709F40A0319F50A0319F60AC0
:100F00000319F70A0130F8007808A1060030A5009F
:100F10000030A4000030A3000030A2007308720467
:100F2000710470040319952F962FE32FA001A00AD6
:100F3000A62F0130F8000310F00DF10DF20DF30DA6
:100F4000F80B9B2F0130F8007808A007F31FA92F9A
:100F5000AA2F992F0130F8000310A20DA30DA40DA4
:100F6000A50DF80BAC2F73087702031DC12F720873
:100F70007602031DC12F71087502031DC12F700871
:100F80007402031CC42FC52FD42F7008F4027108FB
:100F9000031C710FF5027208031C720FF60273082E
:100FA000031C730FF702221401300310F30CF20C30
:100FB000F10CF00CFF3E031DD52F0130A002031DE4
:100FC000E22FE32FAA2F21080319E72FE82FF32F91
:100FD000A209A309A409A509A20A0319A30A0319CE
:100FE000A40A0319A50A2508F3002408F20023081F
:100FF000F1002208F000080083010A128A11112F63
:04400E00F22FFF3F4F
:00000001FF
