:020000040000FA
:060000000A128A11FC2F18
:100D16000A128A11A7260A128A11831603131114BE
:100D260008000A128A11A7260A128A1183160313CB
:100D3600111508000A128A11A7260A128A117008CC
:100D46008312031393000800831603131419AC2EA1
:100D5600AD2EA72E11081F39031DB22EB32EA72EB6
:100D660008000A128A11A7260A128A11831603138B
:100D760091150A128A11A7260A128A1183120313E1
:100D86001308F200F3017208F4007308F5000A1262
:100D96008A11A7260A128A11700871040319D42E23
:100DA600D82E831603139116DB2E83160313911286
:100DB60011167508F1007408F00008002830831237
:100DC600031394008316031391018312031320085F
:100DD600A4002108A5002208A6002308A7000230C7
:100DE6000310A40DA50DA60DA70DFF3E031DF32EA2
:100DF6002708F3002608F2002508F1002408F00071
:100E06000030F7007A30F6001230F5000030F400BA
:100E16000A128A1119270A128A117008FF3E8316D0
:100E26000313930094018715071608000030FC0091
:100E36000030FB000030FA000030F900730872043D
:100E4600710470040319282F292F762FFD01FD0A3E
:100E5600392F0130F8000310F00DF10DF20DF30DEE
:100E6600F80B2E2F0130F8007808FD07F31F3C2FF2
:100E76003D2F2C2F0130F8000310F90DFA0DFB0D54
:100E8600FC0DF80B3F2F73087702031D542F7208D1
:100E96007602031D542F71087502031D542F700826
:100EA6007402031C572F582F672F7008F40271081D
:100EB600031C710FF5027208031C720FF602730809
:100EC600031C730FF702791401300310F30CF20CB4
:100ED600F10CF00CFF3E031D682F0130FD02031DCF
:100EE600752F762F3D2F7C08F3007B08F2007A08D9
:100EF600F1007908F0000800FF308316031386001E
:100F06008801831203138801831603178901880158
:100F1600003083120313A3000130A2008630A10023
:100F2600A030A0000A128A11E1260A128A110A12BA
:100F36008A118B260A128A113030F0000030F10037
:100F46000A128A119D260A128A11831203130608B1
:100F5600A800A9012808F0002908F1000A128A1140
:100F66009D260A128A110A128A1194260A128A11D9
:100F7600033083120313AA000830A9007630A800B4
:100F8600A80BC32FA90BC32FAA0BC32F00000A124D
:100F96008A118B260A128A113130F0000030F100D6
:100FA6000A128A119D260A128A110030F000F100F9
:100FB6000A128A11B4260A128A11700883120313C0
:100FC60088000A128A1194260A128A1103308312A3
:100FD6000313AA000830A9007630A800A80BF12F49
:100FE600A90BF12FAA0BF12F00009A2F0A128A11D2
:0A0FF600002883010A128A117F2FE0
:04400E00C223FF3F8B
:00000001FF
