:020000040000FA
:100000000A128A11F62FF0007008013E84000A12CD
:100010008A1500200A128A11831203138600080031
:10002000F800F401F5017008F200F3017208F6001F
:100030007308F700781C1D281E2824287608F4076A
:100040000318F50A7708F50701300310F60DF70DD0
:10005000FF3E031D25280310F80C7808031D3128E6
:1000600032281A287508F1007408F0000800F6011B
:10007000F11F3B283C284328F009F109F00A031935
:10008000F10AF601F60AF31F462847285028F2091C
:10009000F309F20A0319F30A0130F4007408F606B2
:1000A000F701F801700871040319572858288F28A0
:1000B000F501F50A662801300310F00DF10DFF3E41
:1000C000031D5C280130F4007408F507F11F69284E
:1000D0006A285B2801300310F70DF80DFF3E031D61
:1000E0006B2871087302031D772870087202031CC5
:1000F0007A287B2882287008F2027108031CF30317
:10010000F302771401300310F10CF00CFF3E031DD5
:1001100083280130F502031D8E288F286A2876086F
:100120000319932894289928F709F809F70A03195D
:10013000F80A7808F1007708F0000800831203132A
:100140004D08C3004C08C2004B08C1004A08C0005B
:100150000A128A118A230A128A118312031352087F
:100160000A128A1103200A128A11831203138815B6
:10017000033083120313CF009730CE00CE0BBE287E
:10018000CF0BBE2883120313881153080A128A1159
:1001900003200A128A1183120313081503308312F5
:1001A0000313CF009730CE00CE0BD428CF0BD4282A
:1001B00083120313081154080A128A1103200A1229
:1001C0008A11831203138814033083120313CF00A0
:1001D0009730CE00CE0BEA28CF0BEA288312031308
:1001E000881055080A128A1103200A128A118312F4
:1001F00003130814033083120313CF009730CE008B
:10020000CE0B0029CF0B002983120313081008001E
:10021000031083120313370D380DB9003908BF00DE
:100220003F08031D142915291E290030B80000308D
:10023000B7000030B6000030B50083293508B9009A
:100240003608BA003708BB003808BC001F3003105E
:10025000BC0CBB0CBA0CB90CFF3E031D2729390896
:10026000BD003D08BE00B717FF30B505FF30B6052D
:10027000FF30B7050030B8059630BF02BF1F4129D7
:1002800042295C293F08803A973E031848294929AA
:100290004A29152901300310B80CB70CB60CB50C5F
:1002A000FF3E031D4B290130B9003908BF07031D6C
:1002B0005A295B294A29732920303F02031C6129EE
:1002C00062296E2915290130B9000310B50DB60D4C
:1002D000B70DB80DB90B65290130BF023F08031DEA
:1002E0007229732963293E080319772978298329FC
:1002F000B509B609B709B809B50A0319B60A031949
:10030000B70A0319B80A080000307005F800003079
:100310007105F90080307205FA007F307305FB002B
:100320007B087A0479047804031D97299829A02969
:100330000030F3000030F2000030F1000030F00037
:1003400000307405F80000307505F900803076053E
:10035000FA007F307705FB007B087A047904780483
:10036000031DB329B429BC290030F7000030F60082
:100370000030F5000030F400F31FBF29C029E42944
:100380000030F8000030F9000030FA008030FB0047
:100390007008F8027108031C710FCF29D029F902E7
:1003A0007208031C720FD529D629FA027308031CA0
:1003B000730FDB29DC29FB027B08F3007A08F200CB
:1003C0007908F1007808F000F71FE729E8290C2ADE
:1003D0000030F8000030F9000030FA008030FB00F7
:1003E0007408F8027508031C750FF729F829F9023B
:1003F0007608031C760FFD29FE29FA027708031CF4
:10040000770F032A042AFB027B08F7007A08F6001C
:100410007908F5007808F4008030F3068030F7069C
:1004200077087302031D1E2A76087202031D1E2A16
:1004300075087102031D1E2A740870020318212A10
:10044000222A242A0310252A031408004230F3002C
:10045000C730F200CC30F100CD30F000831203132E
:100460002308F7002208F6002108F5002008F40010
:100470000A128A1184210A128A110318402A412A79
:100480005E2A4430F3007930F200F930F1009A30FE
:10049000F000831203132308F7002208F600210856
:1004A000F5002008F4000A128A1184210A128A1128
:1004B000031C5B2A5C2A5E2A0130CF2A4130F300FC
:1004C0001E30F2006630F1006630F0008312031334
:1004D0002308F7002208F6002108F5002008F400A0
:1004E0000A128A1184210A128A110318782A792A99
:1004F000962A4230F300C730F200CC30F100CD3004
:10050000F000831203132308F7002208F6002108E5
:10051000F5002008F4000A128A1184210A128A11B7
:10052000031C932A942A962A0230CF2A831203139B
:100530002308F3002208F2002108F1002008F0004F
:100540000030F7000030F6000030F5000030F40015
:100550000A128A1184210A128A11031CB02AB12AB4
:10056000CE2A4130F3001E30F2006630F1006630D2
:10057000F000831203132308F7002208F600210875
:10058000F5002008F4000A128A1184210A128A1147
:10059000031CCB2ACC2ACE2A0330CF2A00300800F5
:1005A000F80078080319D52AD62AEA2AF31FD92A8F
:1005B000DA2AEA2A7009FA007109FB007209FC00C4
:1005C0007309FD00FA0A0319FB0A0319FC0A03194F
:1005D000FD0AF22A7308FD007208FC007108FB0096
:1005E0007008FA007308720471047004031DF92A7C
:1005F000FA2A032B0030F3000030F2000030F10043
:100600000030F000892B9630F4007408F900152BA7
:100610000130F4007408F90701300310FD0CFC0CE4
:10062000FB0CFA0CFF3E031D0D2BFE307D05031D58
:100630001A2B1B2B082B372B0130F4007408F907F9
:100640000130FA07003003180130FB0700300318AF
:100650000130FC07003003180130FD0701300310A2
:10066000FD0CFC0CFB0CFA0CFF3E031D2F2BFF3086
:100670007D05031D3C2B3D2B1C2B492B0130F90222
:100680000130F4000310FA0DFB0DFC0DFD0DF40B11
:10069000422BFC1B4C2B4D2B532B023079020318A1
:1006A000522B532B3E2B7918562B572B5F2BFF3099
:1006B000FA05FF30FB057F30FC05FF30FD05031018
:1006C000F90C7908F400F501F601F7011830031070
:1006D000F40DF50DF60DF70DFF3E031D672B7408A5
:1006E000FA047508FB047608FC047708FD04780812
:1006F00003197B2B7C2B812BF31F7F2B802B812BD2
:10070000FD177D08F3007C08F2007B08F1007A08F1
:10071000F0000800831203134308A3004208A2005C
:100720004108A1004008A0000A128A1126220A12DC
:100730008A1183120313C4004408C9004908031D29
:10074000A22BA32BB72B4308B8004208B7004108DF
:10075000B6004008B5000A128A1108210A128A114F
:10076000831203133608C6003508C500492C490317
:10077000031DBB2BBC2BE72B4308A7004208A60098
:100780004108A5004008A4004130A3002030A20089
:100790000030A1000030A0000A128A1195240A122C
:1007A0008A11831203132308B8002208B700210816
:1007B000B6002008B5000A128A1108210A128A110F
:1007C000831203133608C6003508C500492C0230D1
:1007D0004906031DEC2BED2B182C4308A7004208FB
:1007E000A6004108A5004008A4004230A300C8307C
:1007F000A2000030A1000030A0000A128A11952446
:100800000A128A11831203132308B8002208B700C2
:100810002108B6002008B5000A128A1108210A1220
:100820008A11831203133608C6003508C500492C07
:1008300003304906031D1D2C1E2C492C4308A7001C
:100840004208A6004108A5004008A4004430A300C7
:100850007A30A2000030A1000030A0000A128A11F4
:1008600095240A128A11831203132308B800220860
:10087000B7002108B6002008B5000A128A11082125
:100880000A128A11831203133608C6003508C50000
:10089000492CC701C8010A30F0000030F100831272
:1008A00003134608F3004508F2000A128A15A72729
:1008B0000A128A11700883120313C4004708523EBB
:1008C00084004408831380000A30F0000030F100F7
:1008D0004608F3004508F2000A128A1137200A126E
:1008E0008A11710883120313C6007008C500013015
:1008F000C7070318C80A0030C8074808803AFF0035
:1009000080307F02031D862C04304702031C892C93
:100910008A2C4B2C0A3083120313C4004908523E20
:1009200084004408831380070800831203132308FC
:100930008039F9007908A8002308F9007907FA003E
:100940007A08AE00A21FA52CA62CA72C2E142E08C8
:100950000319AB2CAC2CBB2C2E0A031DB02CB12CD4
:10096000B92C0030A3000030A2000030A1000030FC
:10097000A000A217C32C0030A3000030A20000305A
:10098000A1000030A00027088039F9007908A806E6
:100990002708F9007907FA007A08AD00A61FD12CC4
:1009A000D22CD32C2D142D080319D72CD82CE72C9E
:1009B0002D0A031DDC2CDD2CE52C0030A7000030B7
:1009C000A6000030A5000030A400A617EF2C0030D0
:1009D000A7000030A6000030A5000030A4002D08BC
:1009E0000319F32CF42CF92C2E08031DF82CF92CE8
:1009F000022D0030A3000030A2000030A100003022
:100A0000A000F52F2008F9007908F00026080A1246
:100A10008A1110200A128A11710883120313B4007C
:100A20007008B3003308F900FA01FB01FC017C08EF
:100A3000AC007B08AB007A08AA007908A90034084A
:100A4000F900FA01FB01FC017C08B2007B08B1004F
:100A50007A08B0007908AF002108F9007908F000A1
:100A600025080A128A1110200A128A1171088312AD
:100A70000313B4007008B3003308F900FA01FB0156
:100A8000FC017908A9077A0803110318013E03192C
:100A90004A2DAA077B0803110318013E0319512DA3
:100AA000AB077C0803110318013E0319582DAC074E
:100AB0003408F900FA01FB01FC017908AF077A0854
:100AC00003110318013E0319662DB0077B080311BB
:100AD0000318013E03196D2DB1077C08031103189B
:100AE000013E0319742DB2072208F9007908F000BD
:100AF00024080A128A1110200A128A11710883121E
:100B00000313B4007008B3003308F900FA01FB01C5
:100B1000FC017908A9077A0803110318013E03199B
:100B2000922DAA077B0803110318013E0319992D82
:100B3000AB077C0803110318013E0319A02DAC0775
:100B40003408F900FA01FB01FC017908AF077A08C3
:100B500003110318013E0319AE2DB0077B080311E2
:100B60000318013E0319B52DB1077C0803110318C2
:100B7000013E0319BC2DB2070830F9000310A90D7E
:100B8000AA0DAB0DAC0DF90BBE2D2108F9007908AB
:100B9000F00024080A128A1110200A128A11710822
:100BA00083120313B4007008B3003308F90034084B
:100BB000FA00FB01FC017908A9077A080311031860
:100BC000013E0319E42DAA077B0803110318013E17
:100BD0000319EB2DAB077C0803110318013E031921
:100BE000F22DAC072008F9007908F00025080A1258
:100BF0008A1110200A128A11710883120313B4009B
:100C00007008B3003308F9003408FA00FB01FC0156
:100C10007908A9077A0803110318013E0319112E58
:100C2000AA077B0803110318013E0319182EAB070E
:100C30007C0803110318013E03191F2EAC0708306E
:100C4000F9000310A90DAA0DAB0DAC0DF90B212E67
:100C50002008F9007908F00024080A128A111020EF
:100C60000A128A11710883120313B4007008B300CA
:100C70003308F9003408FA00FB01FC017908A907E0
:100C80007A0803110318013E0319472EAA077B08AF
:100C900003110318013E03194E2EAB077C08031104
:100CA0000318013E0319552EAC072108F9007908F5
:100CB000F00026080A128A1110200A128A117108FF
:100CC00083120313B4007008B3003308F90034082A
:100CD000FA00FB01FC017908AF077A080311031839
:100CE000013E0319742EB0077B0803110318013E5F
:100CF00003197B2EB1077C0803110318013E031969
:100D0000822EB2072208F9007908F00025080A129D
:100D10008A1110200A128A11710883120313B40079
:100D20007008B3003308F9003408FA00FB01FC0135
:100D30007908AF077A0803110318013E0319A12EA1
:100D4000B0077B0803110318013E0319A82EB10751
:100D50007C0803110318013E0319AF2EB2072208C5
:100D6000F9007908F00026080A128A1110200A12E8
:100D70008A11710883120313B4007008B30033089A
:100D8000F9003408FA00FB01FC0108300310F90DEA
:100D9000FA0DFB0DFC0DFF3E031DC62E7908AF07B3
:100DA0007A0803110318013E0319D72EB0077B08F8
:100DB00003110318013E0319DE2EB1077C0803114D
:100DC0000318013E0319E52EB2072908F9002A0885
:100DD000FA002B08FB002C08FC0018300310FC0C58
:100DE000FB0CFA0CF90CFF3E031DEE2E7908AF0741
:100DF0007A0803110318013E0319FF2EB0077B0880
:100E000003110318013E0319062FB1077C080311D3
:100E10000318013E03190D2FB2070830F900031023
:100E2000A90DAA0DAB0DAC0DF90B0F2F2E082D0738
:100E3000F900FA01FA0D7908823EB3007A08031826
:100E4000013EFF3EB400412F0130F9000310AF0D09
:100E5000B00DB10DB20DF90B262FAC1F302F312F75
:100E6000322F2F140130F9000310A90DAA0DAB0D7C
:100E7000AC0DF90B342FFF30B3070318B40AFF3061
:100E8000B407B11F442F452F242FAD01AC1F492FAC
:100E90004A2F662FFF302905F900FF302A05FA0096
:100EA000FF302B05FB007F302C05FC007C087B0409
:100EB0007A04790403195D2F5E2F612FAD01AD0A0D
:100EC000662F2F1C642F652F662F5E2F2D080319A8
:100ED0006A2F6B2F9C2F0130AF07003003180130B1
:100EE000B007003003180130B1070030031801309B
:100EF000B207321C7C2F7D2F9C2F2F08F900300861
:100F0000FA003108FB003208FC000130FD007C0DC6
:100F1000FC0CFB0CFA0CF90CFD0B872F7C08B200C3
:100F20007B08B1007A08B0007908AF000130B30740
:100F30000318B40A0030B4073408803AFF00803048
:100F40007F02031DA52FFF303302031CA82FA92FFA
:100F5000B42F7F3083120313B2008030B100003011
:100F6000B0000030AF00E92F831203133408803A39
:100F7000FF0080307F02031DBF2F013033020318B2
:100F8000C22FC32FCF2F003083120313B2000030C3
:100F9000B1000030B0000030AF00A801E92F83128B
:100FA00003133308F9007908AE00FF30AF05FF30B6
:100FB000B0057F30B1050030B2052E1CE02FE12FC7
:100FC000E22FB1172E08F9000310790CFA007A0805
:100FD000B2002808F9007908B2043208A3003108E9
:100FE000A2003008A1002F08A000080083120313FC
:100FF000D201D301D401D50183010A128A155C2FD5
:1010000008308A000408840A82070034C034F934A6
:10101000A434B034993492348234F8348034903427
:10102000403479342434303419341234023478346E
:041030000034103444
:101EB8008312031390141012901210148E018F01C4
:101EC800831603130714880186010730831203134E
:101ED800D0005008831603139F04831203130F08BE
:101EE800D000D1015008D6005108D700083003109F
:101EF800D60DD70DFF3E031D7B2F0E08D000D10154
:101F08005008D6045108D7045608F0005708F100C5
:101F1800F201F30100300A128A11D0220A128A153E
:101F2800730883120313CD007208CC007108CB002C
:101F38007008CA000A128A119E200A128A15712F87
:101F48000A128A110028F601F31FAB2FAC2FB32F0A
:101F5800F209F309F20A0319F30AF601F60AF11F66
:101F6800B62FB72FBC2FF009F109F00A0319F10AAF
:101F7800700871040319C12FC22FF12FF501F50A5A
:101F8800D02F01300310F00DF10DFF3E031DC62FB9
:101F98000130F4007408F507F11FD32FD42FC52F93
:101FA80071087302031DDA2F70087202031CDD2FFB
:101FB800DE2FE42F7008F2027108031CF303F3020A
:101FC80001300310F10CF00CFF3E031DE52F01302A
:101FD800F502031DF02FF12FD42F76080319F52FE2
:101FE800F62FFB2FF209F309F20A0319F30A730813
:081FF800F1007208F00008007E
:04400E00D220FF3F7E
:00000001FF
