:020000040000FA
:060000000A128A11E22F32
:10000C0088341334003400344130831203139F00BE
:10001C00C030831603139F000800031083120313D0
:10002C00660D670DE8006808EE006E08031D1F28BA
:10003C00202829280030E7000030E6000030E500D9
:10004C000030E4008E286408E8006508E9006608C2
:10005C00EA006708EB001F300310EB0CEA0CE90C0C
:10006C00E80CFF3E031D32286808EC006C08ED001C
:10007C00E617FF30E405FF30E505FF30E6050030FC
:10008C00E7059630EE02EE1F4C284D2867286E08C7
:10009C00803A973E031853285428552820280130BD
:1000AC000310E70CE60CE50CE40CFF3E031D562890
:1000BC000130E8006808EE07031D652866285528FE
:1000CC007E2820306E02031C6C286D28792820288D
:1000DC000130E8000310E40DE50DE60DE70DE80B2B
:1000EC0070280130EE026E08031D7D287E286E28D4
:1000FC006D080319822883288E28E409E509E6098E
:10010C00E709E40A0319E50A0319E60A0319E70AE1
:10011C00080083120313A101F31F95289628A32826
:10012C00F009F109F209F309F00A0319F10A0319AC
:10013C00F20A0319F30AA101A10AF71FA628A7289E
:10014C00B628F409F509F609F709F40A0319F50AB2
:10015C000319F60A0319F70A0130F8007808A1060A
:10016C000030A5000030A4000030A3000030A20035
:10017C0073087204710470040319C528C628132966
:10018C00A001A00AD6280130F8000310F00DF10DE3
:10019C00F20DF30DF80BCB280130F8007808A0070E
:1001AC00F31FD928DA28C9280130F8000310A20D52
:1001BC00A30DA40DA50DF80BDC2873087702031D05
:1001CC00F12872087602031DF12871087502031DCF
:1001DC00F12870087402031CF428F528042970080F
:1001EC00F4027108031C710FF5027208031C720FE4
:1001FC00F6027308031C730FF7022214013003106C
:10020C00F30CF20CF10CF00CFF3E031D0529013030
:10021C00A002031D12291329DA2821080319172912
:10022C0018292329A209A309A409A509A20A0319BB
:10023C00A30A0319A40A0319A50A2508F300240824
:10024C00F2002308F1002208F000080083120313C7
:10025C00AA002A080319332934294829A91F372948
:10026C00382948292609AC002709AD002809AE0019
:10027C002909AF00AC0A0319AD0A0319AE0A031918
:10028C00AF0A50292908AF002808AE002708AD0096
:10029C002608AC002908280427042604031D572926
:1002AC00582961290030A9000030A8000030A700AF
:1002BC000030A600E7299630F9007908AB007329C5
:1002CC000130F9007908AB0701300310AF0CAE0C0C
:1002DC00AD0CAC0CFF3E031D6B29FE302F05031D2E
:1002EC0078297929662995290130F9007908AB0715
:1002FC000130AC07003003180130AD070030031893
:10030C000130AE07003003180130AF070130031085
:10031C00AF0CAE0CAD0CAC0CFF3E031D8D29FF30A9
:10032C002F05031D9A299B297A29A7290130AB0295
:10033C000130F9000310AC0DAD0DAE0DAF0DF90B86
:10034C00A029AE1BAA29AB29B12902302B02031814
:10035C00B029B1299C292B18B429B529BD29FF3006
:10036C00AC05FF30AD057F30AE05FF30AF05031097
:10037C00AB0C2B08F900FA01FB01FC01183003103F
:10038C00F90DFA0DFB0DFC0DFF3E031DC529790877
:10039C00AC047A08AD047B08AE047C08AF042A08D0
:1003AC000319D929DA29DF29A91FDD29DE29DF293B
:1003BC00AF172F08A9002E08A8002D08A7002C089D
:1003CC00A60008000330831603132102FF30031923
:1003DC0020020318F229F329A32A200883120313FD
:1003EC00A60083160313210883120313A700A80188
:1003FC00A90100300A128A112C210A128A118312C7
:10040C0003132908B7002808B6002708B5002608EA
:10041C00B4004430B3007F30B200C030B1000030C3
:10042C00B0000A128A11A4220A128A118312031331
:10043C003308D1003208D0003108CF003008CE008C
:10044C000030F7007A30F6001230F5000030F4007E
:10045C00831603132E08A2002F08A3003008A40053
:10046C003108A50002300310A20DA30DA40DA50D9B
:10047C00FF3E031D392A2508F3002408F200230847
:10048C00F1002208F0000A128A118F200A128A1138
:10049C00730883120313A9007208A8007108A7003F
:1004AC007008A60001300A128A112C210A128A1136
:1004BC00831203132908CD002808CC002708CB0091
:1004CC002608CA000A128A1181240A128A11831280
:1004DC0003134D08E7004C08E6004B08E5004A08FA
:1004EC00E4000A128A1113200A128A1183120313D0
:1004FC00650883160313A100831203136408831683
:10050C000313A00020188B2A8F2A8312031397162B
:10051C00922A8312031397121712831603132108BE
:10052C00A3002008A2000310A30CA20C0310A30C20
:10053C00A20C2208831203139500080083120313E4
:10054C0037088039B8003808C1003708B8003807B8
:10055C00B9003908C800B61FB42AB52AB62A4814FF
:10056C0048080319BA2ABB2ACB2A480A031DBF2AFA
:10057C00C02AC82A0030B7000030B6000030B500E1
:10058C000030B400B617B701D32A0030B7000030E2
:10059C00B6000030B5000030B40033088039B80024
:1005AC003808C1063308B8003807B9003908C90043
:1005BC00B21FE12AE22AE32A491449080319E72A5F
:1005CC00E82AF82A490A031DEC2AED2AF52A0030FC
:1005DC00B3000030B2000030B1000030B000B217F0
:1005EC00B301002B0030B3000030B2000030B1007A
:1005FC000030B0003308320431043004031D072BE3
:10060C00082B212B0030B7000030B6000030B500AD
:10061C000030B4008030B6047F30B7044108B80015
:10062C003808B7043708B3003608B2003508B100F3
:10063C003408B000802C4808031D252B262B2F2BAB
:10064C000030B3000030B2000030B1000030B00018
:10065C00802C4808B800B9013908BB004908380299
:10066C00BA00031CBB033A087F3EC2003B080318C8
:10067C00013E003EC3003708C0003608BF003508F5
:10068C00BE003408BD000030B7000030B6000030AA
:10069C00B5000030B4000030C7000030C600003098
:1006AC00C5000030C400C901A52B490803195F2BF4
:1006BC00602B802B0130B8000310BD0DBE0DBF0D9B
:1006CC00C00DB80B622B0130B8000310B40DB50D82
:1006DC00B60DB70DB80B6B2BC71F752B762B772B65
:1006EC0034140130B8000310C40DC50DC60DC70D70
:1006FC00B80B792B33084002031D8E2B32083F02B6
:10070C00031D8E2B31083E02031D8E2B30083D023B
:10071C00031C912B922BA12B47173008BD023108DB
:10072C00031C310FBE023208031C320FBF02330808
:10073C00031C330FC0020130B8003808C9071A3047
:10074C004902031CAA2BAB2B5B2B40083F043E0435
:10075C003D040319B22BB32BD22B4414D22B0130F2
:10076C00B8000310B40DB50DB60DB70DB80BB72B03
:10077C00C71FC12BC22BC32B34140130B80003107C
:10078C00C40DC50DC60DC70DB80BC52BFF30C20768
:10079C000318C30AFF30C307B61FD52BD62BB52BB6
:1007AC00C901C71FDA2BDB2BF72BFF304405B80030
:1007BC00FF304505B900FF304605BA007F304705CC
:1007CC00BB003B083A04390438040319EE2BEF2B19
:1007DC00F22BC901C90AF72B341CF52BF62BF72B7E
:1007EC00EF2B49080319FB2BFC2B2D2C0130B407E4
:1007FC00003003180130B507003003180130B6077C
:10080C00003003180130B707371C0D2C0E2C2D2C83
:10081C003408B8003508B9003608BA003708BB00F0
:10082C000130BC003B0DBB0CBA0CB90CB80CBC0BAA
:10083C00182C3B08B7003A08B6003908B500380840
:10084C00B4000130C2070318C30A0030C3074308C1
:10085C00803AFF0080307F02031D362CFF304202AD
:10086C00031C392C3A2C482CFF3083120313C20082
:10087C000030C3000030B7000030B6000030B500C7
:10088C000030B400831203134308803AFF00803019
:10089C007F02031D532C013042020318562C572C97
:1008AC00642C83120313C201C3010030B700003063
:1008BC00B6000030B5000030B400C1018312031340
:1008CC004208B8003808C800481C6D2C6E2C702CDF
:1008DC00B617742C7F30B8003808B6054808B80035
:1008EC000310380CB9003908B7004108B8003808B3
:1008FC00B704182B0800831203134D088039D2005B
:10090C005208D7004D08D2005207D3005308DD001F
:10091C00CC1F912C922C932C5D145D080319972CF1
:10092C00982CA72C5D0A031D9C2C9D2CA52C00300B
:10093C00CD000030CC000030CB000030CA00CC170A
:10094C00AF2C0030CD000030CC000030CB0000309C
:10095C00CA0051088039D2005208D7065108D2007B
:10096C005207D3005308DC00D01FBD2CBE2CBF2C6B
:10097C005C145C080319C32CC42CD32C5C0A031D17
:10098C00C82CC92CD12C0030D1000030D000003044
:10099C00CF000030CE00D017DB2C0030D10000305F
:1009AC00D0000030CF000030CE005C080319DF2CE3
:1009BC00E02CE52C5D08031DE42CE52CEE2C00301E
:1009CC00CD000030CC000030CB000030CA00E12F4D
:1009DC004A08D2005208F00050080A128A15CF2695
:1009EC000A128A11710883120313E3007008E200E3
:1009FC006208D200D301D401D5015508DB0054089C
:100A0C00DA005308D9005208D8006308D200D30189
:100A1C00D401D5015508E1005408E0005308DF006B
:100A2C005208DE004B08D2005208F0004F080A12A0
:100A3C008A15CF260A128A11710883120313E30058
:100A4C007008E2006208D200D301D401D50152082B
:100A5C00D807530803110318013E0319362DD90783
:100A6C00540803110318013E03193D2DDA075508EC
:100A7C0003110318013E0319442DDB076308D20050
:100A8C00D301D401D5015208DE0753080311031812
:100A9C00013E0319522DDF07540803110318013EC0
:100AAC000319592DE007550803110318013E0319CA
:100ABC00602DE1074C08D2005208F0004E080A12D3
:100ACC008A15CF260A128A11710883120313E300C8
:100ADC007008E2006208D200D301D401D50152089B
:100AEC00D807530803110318013E03197E2DD907AB
:100AFC00540803110318013E0319852DDA07550814
:100B0C0003110318013E03198C2DDB076308D20077
:100B1C00D301D401D5015208DE0753080311031881
:100B2C00013E03199A2DDF07540803110318013EE7
:100B3C000319A12DE007550803110318013E0319F1
:100B4C00A82DE1070830D2000310D80DD90DDA0D0D
:100B5C00DB0DD20BAA2D4B08D2005208F0004E0828
:100B6C000A128A15CF260A128A11710883120313EE
:100B7C00E3007008E2006208D2006308D300D401DD
:100B8C00D5015208D807530803110318013E031965
:100B9C00D02DD907540803110318013E0319D72D82
:100BAC00DA07550803110318013E0319DE2DDB0784
:100BBC004A08D2005208F0004F080A128A15CF26B4
:100BCC000A128A11710883120313E3007008E20001
:100BDC006208D2006308D300D401D5015208D807AB
:100BEC00530803110318013E0319FD2DD9075408AE
:100BFC0003110318013E0319042EDA0755080311DB
:100C0C000318013E03190B2EDB070830D20003102A
:100C1C00D80DD90DDA0DDB0DD20B0D2E4A08D200F2
:100C2C005208F0004E080A128A15CF260A128A11B1
:100C3C00710883120313E3007008E2006208D2000B
:100C4C006308D300D401D5015208D8075308031107
:100C5C000318013E0319332ED90754080311031846
:100C6C00013E03193A2EDA07550803110318013E09
:100C7C000319412EDB074B08D2005208F000500834
:100C8C000A128A15CF260A128A11710883120313CD
:100C9C00E3007008E2006208D2006308D300D401BC
:100CAC00D5015208DE07530803110318013E03193E
:100CBC00602EDF07540803110318013E0319672E39
:100CCC00E007550803110318013E03196E2EE107C6
:100CDC004C08D2005208F0004F080A128A15CF2691
:100CEC000A128A11710883120313E3007008E200E0
:100CFC006208D2006308D300D401D5015208DE0784
:100D0C00530803110318013E03198D2EDF075408F5
:100D1C0003110318013E0319942EE0075508031123
:100D2C000318013E03199B2EE1074C08D200520810
:100D3C00F00050080A128A15CF260A128A1171087F
:100D4C0083120313E3007008E2006208D200630808
:100D5C00D300D401D50108300310D20DD30DD40D1E
:100D6C00D50DFF3E031DB22E5208DE0753080311AA
:100D7C000318013E0319C32EDF075408031103188F
:100D8C00013E0319CA2EE007550803110318013E52
:100D9C000319D12EE1075808D2005908D3005A087C
:100DAC00D4005B08D50018300310D50CD40CD30C30
:100DBC00D20CFF3E031DDA2E5208DE075308031136
:100DCC000318013E0319EB2EDF0754080311031817
:100DDC00013E0319F22EE007550803110318013EDA
:100DEC000319F92EE1070830D2000310D80DD90DE4
:100DFC00DA0DDB0DD20BFB2E5D085C07D200D301A4
:100E0C00D30D5208823EE20053080318013EFF3E08
:100E1C00E3002D2F0130D2000310DE0DDF0DE00DAD
:100E2C00E10DD20B122FDB1F1C2F1D2F1E2F5E145A
:100E3C000130D2000310D80DD90DDA0DDB0DD20B19
:100E4C00202FFF30E2070318E30AFF30E307E01F0F
:100E5C00302F312F102FDC01DB1F352F362F522F67
:100E6C00FF305805D200FF305905D300FF305A052A
:100E7C00D4007F305B05D50055085404530452044C
:100E8C000319492F4A2F4D2FDC01DC0A522F5E1C0F
:100E9C00502F512F522F4A2F5C080319562F572FC2
:100EAC00882F0130DE07003003180130DF070030D7
:100EBC0003180130E007003003180130E107611C12
:100ECC00682F692F882F5E08D2005F08D300600856
:100EDC00D4006108D5000130D600550DD50CD40CCA
:100EEC00D30CD20CD60B732F5508E1005408E0003C
:100EFC005308DF005208DE000130E2070318E30A52
:100F0C000030E3076308803AFF0080307F02031D46
:100F1C00912FFF306202031C942F952FA02F7F304E
:100F2C0083120313E1008030E0000030DF0000305A
:100F3C00DE00D52F831203136308803AFF00803044
:100F4C007F02031DAB2F013062020318AE2FAF2FAF
:100F5C00BB2F003083120313E1000030E00000309F
:100F6C00DF000030DE00D701D52F83120313620897
:100F7C00D2005208DD00FF30DE05FF30DF057F3088
:100F8C00E0050030E1055D1CCC2FCD2FCE2FE017F6
:100F9C005D08D2000310520CD3005308E10057082F
:100FAC00D2005208E1046108CD006008CC005F0853
:100FBC00CB005E08CA000800831603130A128A11BC
:100FCC0006200A128A11AE000A128A1107200A1290
:100FDC008A11AF000A128A1108200A128A11B00075
:100FEC000A128A1109200A128A11B10083010A120D
:040FFC008A15962F8D
:101D9E00F800F401F5017008F200F3017208F60084
:101DAE007308F700781CDC2EDD2EE32E7608F40780
:101DBE000318F50A7708F50701300310F60DF70D35
:101DCE00FF3E031DE42E0310F80C7808031DF02EC1
:101DDE00F12ED92E7508F1007408F0000800831654
:101DEE0003132E08F9002F08FA003008FB00310803
:101DFE00FC0002300310F90DFA0DFB0DFC0DFF3E39
:101E0E00031D012F02300310F90DFA0DFB0DFC0D11
:101E1E00FF3E031D0A2F7C08F3007B08F2007A08B0
:101E2E00F1007908F0000030F7007A30F600123039
:101E3E00F5000030F4000A128A118F200A128A155A
:101E4E007008FF3E83160313920083120313971537
:101E5E00171512149210121583160313071108008A
:101E6E00FD000E307D02031C3D2F3E2F492F00300A
:101E7E0083120313B3000030B2000030B100003003
:101E8E00B000952FC53083120313B40034089F059C
:101E9E007D08B40002300310B40DFF3E031D522F17
:101EAE000310340DB50035089F040630831203135A
:101EBE00B5002F30B400B40B622FB50B622F672F15
:101ECE00831203139F149F186D2F6E2F6A2F1E08F7
:101EDE00B400B5013408B500B401831603131E080F
:101EEE00831203133407A6000030031801303507A0
:101EFE00A700A801A71BA8032808A90001300A12F1
:101F0E008A112C210A128A15831203132908B30091
:101F1E002808B2002708B1002608B0000800FF30DC
:101F2E008316031385000A128A110A200A128A15D3
:101F3E000A128A15F6260A128A1500300A128A1516
:101F4E0037270A128A1583120313330883160313D5
:101F5E00AB0083120313320883160313AA008312F5
:101F6E000313310883160313A900831203133008D9
:101F7E0083160313A8002B0883120313E70083169E
:101F8E0003132A0883120313E6008316031329088A
:101F9E0083120313E5008316031328088312031319
:101FAE00E4000A128A1113200A128A1583120313EF
:101FBE00650883160313AD0083120313640883169A
:101FCE000313AC002D08A1002C08A0000A128A11E0
:101FDE00E8210A128A15823083160313A700DD301A
:101FEE00A600A60BF82FA70BF82FA42F0A128A1102
:021FFE000028B9
:04400E00E23CFF3F52
:00000001FF
