:020000040000FA
:100000000A128A11F62F00308A000408840A820737
:100010000034C034F934A434B03499349234823486
:10002000F834803490344034793424343034193402
:0A0030001234023478340034103426
:10004400F800F401F5017008F200F3017208F600FB
:100054007308F700781C2F28302836287608F40710
:100064000318F50A7708F50701300310F60DF70DAC
:10007400FF3E031D37280310F80C7808031D43289E
:1000840044282C287508F1007408F0000800423058
:10009400F300C730F200CC30F100CD30F000831211
:1000A40003132308F7002208F6002108F5002008AE
:1000B400F4000A128A155E270A128A1103186328AB
:1000C400642881284430F3007930F200F930F100DB
:1000D4009A30F000831203132308F7002208F60075
:1000E4002108F5002008F4000A128A155E270A1276
:1000F4008A11031C7E287F2881280130F228413090
:10010400F3001E30F2006630F1006630F000831216
:1001140003132308F7002208F6002108F50020083D
:10012400F4000A128A155E270A128A1103189B2802
:100134009C28B9284230F300C730F200CC30F100DB
:10014400CD30F000831203132308F7002208F600D1
:100154002108F5002008F4000A128A155E270A1205
:100164008A11031CB628B728B9280230F228831252
:1001740003132308F3002208F2002108F1002008E9
:10018400F0000030F7000030F6000030F5000030D9
:10019400F4000A128A155E270A128A11031CD32856
:1001A400D428F1284130F3001E30F2006630F1000B
:1001B4006630F000831203132308F7002208F600C8
:1001C4002108F5002008F4000A128A155E270A1295
:1001D4008A11031CEE28EF28F1280330F22800309E
:1001E4000800F80078080319F828F9280D29F31FE6
:1001F400FC28FD280D297009FA007109FB00720919
:10020400FC007309FD00FA0A0319FB0A0319FC0A2E
:100214000319FD0A15297308FD007208FC00710812
:10022400FB007008FA007308720471047004031D63
:100234001C291D2926290030F3000030F20000306B
:10024400F1000030F000AC299630F4007408F90095
:1002540038290130F4007408F90701300310FD0C4B
:10026400FC0CFB0CFA0CFF3E031D3029FE307D050F
:10027400031D3D293E292B295A290130F400740815
:10028400F9070130FA07003003180130FB0700308A
:1002940003180130FC07003003180130FD0701305A
:1002A4000310FD0CFC0CFB0CFA0CFF3E031D522941
:1002B400FF307D05031D5F2960293F296C2901302A
:1002C400F9020130F4000310FA0DFB0DFC0DFD0DD5
:1002D400F40B6529FC1B6F297029762902307902F9
:1002E4000318752976296129791879297A298229A7
:1002F400FF30FA05FF30FB057F30FC05FF30FD05BC
:100304000310F90C7908F400F501F601F70118302F
:100314000310F40DF50DF60DF70DFF3E031D8A29AC
:100324007408FA047508FB047608FC047708FD04D5
:10033400780803199E299F29A429F31FA229A32918
:10034400A429FD177D08F3007C08F2007B08F10066
:100354007A08F0000800831203134308A30042083C
:10036400A2004108A1004008A0000A128A114920F5
:100374000A128A1183120313C4004408C9004908ED
:10038400031DC529C629DA294308B8004208B70065
:100394004108B6004008B5000A128A155D260A1203
:1003A4008A11831203133608C6003508C5006C2A67
:1003B4004903031DDE29DF290A2A4308A70042084E
:1003C400A6004108A5004008A4004130A300203045
:1003D400A2000030A1000030A0000A128A11952466
:1003E4000A128A11831203132308B8002208B700E3
:1003F4002108B6002008B5000A128A155D260A12E3
:100404008A11831203133608C6003508C5006C2A06
:1004140002304906031D0F2A102A3B2A4308A7006D
:100424004208A6004108A5004008A4004230A300E9
:10043400C830A2000030A1000030A0000A128A11C6
:1004440095240A128A11831203132308B800220880
:10045400B7002108B6002008B5000A128A155D26E7
:100464000A128A11831203133608C6003508C50020
:100474006C2A03304906031D402A412A6C2A43088A
:10048400A7004208A6004108A5004008A400443083
:10049400A3007A30A2000030A1000030A0000A12AC
:1004A4008A1195240A128A11831203132308B800AF
:1004B4002208B7002108B6002008B5000A128A15E0
:1004C4005D260A128A11831203133608C600350802
:1004D400C5006C2AC701C8010A30F0000030F100E1
:1004E400831203134608F3004508F2000A128A1522
:1004F400D4240A128A11700883120313C400470813
:100504005C3E84004408831380000A30F00000300D
:10051400F1004608F3004508F2000A128A158C25FA
:100524000A128A11710883120313C6007008C500E9
:100534000130C7070318C80A0030C8074808803AC2
:10054400FF0080307F02031DA92A04304702031CE8
:10055400AC2AAD2A6E2A0A3083120313C400490858
:100564005C3E84004408831380070800831203134D
:100574003C088039BD003D08C6003C08BD003D076D
:10058400BE003E08CD00BB1FC82AC92ACA2A4D1482
:100594004D080319CE2ACF2ADF2A4D0A031DD32A78
:1005A400D42ADC2A0030BC000030BB000030BA0082
:1005B4000030B900BB17BC01E72A0030BC00003092
:1005C400BB000030BA000030B90038088039BD00E3
:1005D4003D08C6063808BD003D07BE003E08CE00F3
:1005E400B71FF52AF62AF72A4E144E080319FB2AD8
:1005F400FC2A0C2B4E0A031D002B012B092B003067
:10060400B8000030B7000030B6000030B500B717AE
:10061400B801142B0030B8000030B7000030B60029
:100624000030B5003808370436043504031D1B2B8D
:100634001C2B352B0030BC000030BB000030BA004E
:100644000030B9008030BB047F30BC044608BD00D4
:100654003D08BC043C08B8003B08B7003A08B600A3
:100664003908B500942C4D08031D392B3A2B432B24
:100674000030B8000030B7000030B6000030B500DC
:10068400942C4D08BD00BE013E08C0004E083D023A
:10069400BF00031CC0033F087F3EC7004008031887
:1006A400013E003EC8003C08C5003B08C4003A08AF
:1006B400C3003908C2000030BC000030BB00003069
:1006C400BA000030B9000030CC000030CB0000305C
:1006D400CA000030C900CE01B92B4E080319732B90
:1006E400742B942B0130BD000310C20DC30DC40D37
:1006F400C50DBD0B762B0130BD000310B90DBA0D2D
:10070400BB0DBC0DBD0B7F2BCC1F892B8A2B8B2BD8
:1007140039140130BD000310C90DCA0DCB0DCC0D29
:10072400BD0B8D2B38084502031DA22B370844024C
:10073400031DA22B36084302031DA22B35084202D7
:10074400031CA52BA62BB52B4C173508C202360863
:10075400031C360FC3023708031C370FC4023808C2
:10076400031C380FC5020130BD003D08CE071A3006
:100774004E02031CBE2BBF2B6F2B450844044304BD
:1007840042040319C62BC72BE62B4914E62B013070
:10079400BD000310B90DBA0DBB0DBC0DBD0BCB2BA9
:1007A400CC1FD52BD62BD72B39140130BD00031009
:1007B400C90DCA0DCB0DCC0DBD0BD92BFF30C7070E
:1007C4000318C80AFF30C807BB1FE92BEA2BC92B43
:1007D400CE01CC1FEE2BEF2B0B2CFF304905BD00B7
:1007E400FF304A05BE00FF304B05BF007F304C058B
:1007F400C00040083F043E043D040319022C032CAE
:10080400062CCE01CE0A0B2C391C092C0A2C0B2CDD
:10081400032C4E0803190F2C102C412C0130B9075E
:10082400003003180130BA07003003180130BB0749
:10083400003003180130BC073C1C212C222C412C15
:100844003908BD003A08BE003B08BF003C08C000A0
:100854000130C100400DC00CBF0CBE0CBD0CC10B5F
:100864002C2C4008BC003F08BB003E08BA003D08E1
:10087400B9000130C7070318C80A0030C807480880
:10088400803AFF0080307F02031D4A2CFF3047026C
:10089400031C4D2C4E2C5C2CFF3083120313C70019
:1008A4000030C8000030BC000030BB000030BA008B
:1008B4000030B900831203134808803AFF008030E7
:1008C4007F02031D672C0130470203186A2C6B2C2E
:1008D400782C83120313C701C8010030BC00003018
:1008E400BB000030BA000030B900C6018312031304
:1008F4004708BD003D08CD004D1C812C822C842C62
:10090400BB17882C7F30BD003D08BB054D08BD00DA
:1009140003103D0CBE003E08BC004608BD003D0867
:10092400BC042C2B08008312031323088039F9001C
:100934007908A8002308F9007907FA007A08AE00BC
:10094400A21FA52CA62CA72C2E142E080319AB2C01
:10095400AC2CBB2C2E0A031DB02CB12CB92C0030AE
:10096400A3000030A2000030A1000030A000A217B4
:10097400C32C0030A3000030A2000030A1000030DE
:10098400A00027088039F9007908A8062708F9008B
:100994007907FA007A08AD00A61FD12CD22CD32CEB
:1009A4002D142D080319D72CD82CE72C2D0A031D40
:1009B400DC2CDD2CE52C0030A7000030A600003034
:1009C400A5000030A400A617EF2C0030A7000030CB
:1009D400A6000030A5000030A4002D080319F32C54
:1009E400F42CF92C2E08031DF82CF92C022D0030C0
:1009F400A3000030A2000030A1000030A000F52FB9
:100A04002008F9007908F00026080A128A11222029
:100A14000A128A11710883120313B4007008B30018
:100A24003308F900FA01FB01FC017C08AC007B08E7
:100A3400AB007A08AA007908A9003408F900FA0181
:100A4400FB01FC017C08B2007B08B1007A08B0000D
:100A54007908AF002108F9007908F00025080A1286
:100A64008A1122200A128A11710883120313B40016
:100A74007008B3003308F900FA01FB01FC0179089E
:100A8400A9077A0803110318013E03194A2DAA077E
:100A94007B0803110318013E0319512DAB077C0891
:100AA40003110318013E0319582DAC073408F9004B
:100AB400FA01FB01FC017908AF077A080311031856
:100AC400013E0319662DB0077B0803110318013E8C
:100AD40003196D2DB1077C0803110318013E031996
:100AE400742DB2072208F9007908F00024080A12CC
:100AF4008A1122200A128A11710883120313B40086
:100B04007008B3003308F900FA01FB01FC0179080D
:100B1400A9077A0803110318013E0319922DAA07A5
:100B24007B0803110318013E0319992DAB077C08B8
:100B340003110318013E0319A02DAC073408F90072
:100B4400FA01FB01FC017908AF077A0803110318C5
:100B5400013E0319AE2DB0077B0803110318013EB3
:100B64000319B52DB1077C0803110318013E0319BD
:100B7400BC2DB2070830F9000310A90DAA0DAB0D66
:100B8400AC0DF90BBE2D2108F9007908F0002408FA
:100B94000A128A1122200A128A117108831203137D
:100BA400B4007008B3003308F9003408FA00FB01FC
:100BB400FC017908A9077A0803110318013E0319F7
:100BC400E42DAA077B0803110318013E0319EB2D3A
:100BD400AB077C0803110318013E0319F22DAC077F
:100BE4002008F9007908F00025080A128A11222049
:100BF4000A128A11710883120313B4007008B30037
:100C04003308F9003408FA00FB01FC017908A9074C
:100C14007A0803110318013E0319112EAA077B0851
:100C240003110318013E0319182EAB077C080311A6
:100C34000318013E03191F2EAC070830F9000310F6
:100C4400A90DAA0DAB0DAC0DF90B212E2008F9004E
:100C54007908F00024080A128A1122200A128A1143
:100C6400710883120313B4007008B3003308F90049
:100C74003408FA00FB01FC017908A9077A0803117A
:100C84000318013E0319472EAA077B080311031812
:100C9400013E03194E2EAB077C0803110318013ED5
:100CA4000319552EAC072108F9007908F00026082D
:100CB4000A128A1122200A128A117108831203135C
:100CC400B4007008B3003308F9003408FA00FB01DB
:100CD400FC017908AF077A0803110318013E0319D0
:100CE400742EB0077B0803110318013E03197B2EF1
:100CF400B1077C0803110318013E0319822EB207C1
:100D04002208F9007908F00025080A128A11222025
:100D14000A128A11710883120313B4007008B30015
:100D24003308F9003408FA00FB01FC017908AF0725
:100D34007A0803110318013E0319A12EB0077B089A
:100D440003110318013E0319A82EB1077C080311EF
:100D54000318013E0319AF2EB2072208F9007908DF
:100D6400F00026080A128A1122200A128A11710838
:100D740083120313B4007008B3003308F900340875
:100D8400FA00FB01FC0108300310F90DFA0DFB0D0C
:100D9400FC0DFF3E031DC62E7908AF077A08031128
:100DA4000318013E0319D72EB0077B08031103185B
:100DB400013E0319DE2EB1077C0803110318013E1E
:100DC4000319E52EB2072908F9002A08FA002B08AE
:100DD400FB002C08FC0018300310FC0CFB0CFA0C74
:100DE400F90CFF3E031DEE2E7908AF077A080311B4
:100DF4000318013E0319FF2EB0077B0803110318E3
:100E0400013E0319062FB1077C0803110318013EA4
:100E140003190D2FB2070830F9000310A90DAA0D0C
:100E2400AB0DAC0DF90B0F2F2E082D07F900FA01AD
:100E3400FA0D7908823EB3007A080318013EFF3E9A
:100E4400B400412F0130F9000310AF0DB00DB10D06
:100E5400B20DF90B262FAC1F302F312F322F2F1448
:100E64000130F9000310A90DAA0DAB0DAC0DF90B5F
:100E7400342FFF30B3070318B40AFF30B407B11F8F
:100E8400442F452F242FAD01AC1F492F4A2F662F25
:100E9400FF302905F900FF302A05FA00FF302B0541
:100EA400FB007F302C05FC007C087B047A04790469
:100EB40003195D2F5E2F612FAD01AD0A662F2F1C24
:100EC400642F652F662F5E2F2D0803196A2F6B2F51
:100ED4009C2F0130AF07003003180130B0070030F9
:100EE40003180130B107003003180130B207321C77
:100EF4007C2F7D2F9C2F2F08F9003008FA00310831
:100F0400FB003208FC000130FD007C0DFC0CFB0CE6
:100F1400FA0CF90CFD0B872F7C08B2007B08B1009A
:100F24007A08B0007908AF000130B3070318B40A97
:100F34000030B4073408803AFF0080307F02031D7C
:100F4400A52FFF303302031CA82FA92FB42F7F3005
:100F540083120313B2008030B1000030B0000030BF
:100F6400AF00E92F831203133408803AFF00803066
:100F74007F02031DBF2F013033020318C22FC32F7A
:100F8400CF2F003083120313B2000030B1000030C1
:100F9400B0000030AF00A801E92F83120313330817
:100FA400F9007908AE00FF30AF05FF30B0057F309F
:100FB400B1050030B2052E1CE02FE12FE22FB1174E
:100FC4002E08F9000310790CFA007A08B2002808F8
:100FD400F9007908B2043208A3003108A2003008ED
:100FE400A1002F08A000080083120313DC01DD0117
:0C0FF400DE01DF0183010A128A15D92EEC
:10197C004130831203139F00F030831603139F0032
:10198C000800F0007008013E84000A128A1103203E
:10199C000A128A158312031387000800F601F31F3D
:1019AC00D82CD92CE02CF209F309F20A0319F30A0A
:1019BC00F601F60AF11FE32CE42CE92CF009F109ED
:1019CC00F00A0319F10A700871040319EE2CEF2CBC
:1019DC001E2DF501F50AFD2C01300310F00DF10D53
:1019EC00FF3E031DF32C0130F4007408F507F11FC2
:1019FC00002D012DF22C71087302031D072D7008A8
:101A0C007202031C0A2D0B2D112D7008F2027108A5
:101A1C00031CF303F30201300310F10CF00CFF3E36
:101A2C00031D122D0130F502031D1D2D1E2D012D40
:101A3C0076080319222D232D282DF209F309F20A19
:101A4C000319F30A7308F1007208F0000800003063
:101A5C008312031321020E3003192002031C372DAD
:101A6C00382D412D0030A3000030A2000030A10021
:101A7C000030A0008B2DC130A40024089F05200845
:101A8C00A40001300310A40DFF3E031D482D0310CC
:101A9C00240DA50025089F04063083120313A5000E
:101AAC002F30A400A40B582DA50B582D5D2D83129F
:101ABC0003139F149F18632D642D602D1E08A40022
:101ACC00A5012408A500A401831603131E08831284
:101ADC0003132407F0000030031801302507F10030
:101AEC00F201F11BF2037208F30001300A128A11A1
:101AFC00F3200A128A15730883120313A3007208C9
:101B0C00A2007108A1007008A0000800F601F11FE6
:101B1C00902D912D982DF009F109F00A0319F10A75
:101B2C00F601F60AF31F9B2D9C2DA52DF209F30946
:101B3C00F20A0319F30A0130F4007408F606F701EF
:101B4C00F801700871040319AC2DAD2DE42DF501CD
:101B5C00F50ABB2D01300310F00DF10DFF3E031DF6
:101B6C00B12D0130F4007408F507F11FBE2DBF2D07
:101B7C00B02D01300310F70DF80DFF3E031DC02DE5
:101B8C0071087302031DCC2D70087202031CCF2D3B
:101B9C00D02DD72D7008F2027108031CF303F30249
:101BAC00771401300310F10CF00CFF3E031DD82DFF
:101BBC000130F502031DE32DE42DBF2D760803192A
:101BCC00E82DE92DEE2DF709F809F70A0319F80AA3
:101BDC007808F1007708F0000800831203134D0811
:101BEC00C3004C08C2004B08C1004A08C0000A12CE
:101BFC008A11AD210A128A15831203135C080A128A
:101C0C008A15C7240A128A15831203138815033008
:101C1C0083120313CF009730CE00CE0B132ECF0BB5
:101C2C00132E8312031388115D080A128A15C72418
:101C3C000A128A1583120313081503308312031337
:101C4C00CF009730CE00CE0B292ECF0B292E83122E
:101C5C00031308115E080A128A15C7240A128A1582
:101C6C00831203138814033083120313CF009730AD
:101C7C00CE00CE0B3F2ECF0B3F2E831203138810BA
:101C8C005F080A128A15C7240A128A1583120313D5
:101C9C000814033083120313CF009730CE00CE0B01
:101CAC00552ECF0B552E831203130810080003106A
:101CBC0083120313370D380DB9003908BF003F08E4
:101CCC00031D692E6A2E732E0030B8000030B70049
:101CDC000030B6000030B500D82E3508B9003608F3
:101CEC00BA003708BB003808BC001F300310BC0C0E
:101CFC00BB0CBA0CB90CFF3E031D7C2E3908BD0081
:101D0C003D08BE00B717FF30B505FF30B605FF30F4
:101D1C00B7050030B8059630BF02BF1F962E972E20
:101D2C00B12E3F08803A973E03189D2E9E2E9F2E73
:101D3C006A2E01300310B80CB70CB60CB50CFF3E74
:101D4C00031DA02E0130B9003908BF07031DAF2EAB
:101D5C00B02E9F2EC82E20303F02031CB62EB72E5D
:101D6C00C32E6A2E0130B9000310B50DB60DB70D98
:101D7C00B80DB90BBA2E0130BF023F08031DC72E98
:101D8C00C82EB82E3E080319CC2ECD2ED82EB50950
:101D9C00B609B709B809B50A0319B60A0319B70A7F
:101DAC000319B80A080083160313861687018801E5
:101DBC000A128A15BE240A128A150D3083120313D7
:101DCC00A0000030A1000A128A152D250A128A15CE
:101DDC00831203132308D3002208D2002108D10058
:101DEC002008D0004430B8007F30B700C030B600B7
:101DFC000030B5004530A3009C30A2004030A1005B
:101E0C000030A0005308A7005208A6005108A500F6
:101E1C005008A4000A128A1195240A128A158312FA
:101E2C0003132308BC002208BB002108BA002008B9
:101E3C00B9000A128A11B8220A128A1583120313E6
:101E4C003808D7003708D6003608D5003508D40036
:101E5C004130B8002030B7000030B6000030B5007B
:101E6C005708BC005608BB005508BA005408B90006
:101E7C000A128A11B8220A128A158312031338081F
:101E8C00DB003708DA003608D9003508D8005B08C3
:101E9C00CD005A08CC005908CB005808CA000A12C9
:101EAC008A15F3250A128A15E32E0A128A110028C4
:101EBC0000307005F80000307105F90080307205B3
:101ECC00FA007F307305FB007B087A0479047804F0
:101EDC00031D712F722F7A2F0030F3000030F200A7
:101EEC000030F1000030F00000307405F8000030D4
:101EFC007505F90080307605FA007F307705FB0018
:101F0C007B087A0479047804031D8D2F8E2F962F6D
:101F1C000030F7000030F6000030F5000030F4001F
:101F2C00F31F992F9A2FBE2F0030F8000030F900C4
:101F3C000030FA008030FB007008F8027108031CB6
:101F4C00710FA92FAA2FF9027208031C720FAF2F61
:101F5C00B02FFA027308031C730FB52FB62FFB02B8
:101F6C007B08F3007A08F2007908F1007808F00099
:101F7C00F71FC12FC22FE62F0030F8000030F900F8
:101F8C000030FA008030FB007408F8027508031C5E
:101F9C00750FD12FD22FF9027608031C760FD72F8D
:101FAC00D82FFA027708031C770FDD2FDE2FFB02E8
:101FBC007B08F7007A08F6007908F5007808F40039
:101FCC008030F3068030F70677087302031DF82F74
:101FDC0076087202031DF82F75087102031DF82F85
:101FEC00740870020318FB2FFC2FFE2F0310FF2F19
:041FFC0003140800C2
:04400E00D22FFF3F6F
:00000001FF
