:020000040000FA
:060000000A128A110C280F
:10000800FE00030EF1000A08F2000A128A114228C3
:100018000A128A110F2883010A128A1113288316DB
:1000280003138113FF3086008801831203138801AC
:10003800FF30860083160317890188018B170B1779
:10004800831203138C11831603138C159F018516D5
:10005800F301F401F50124300A128A1160200A1212
:100068008A110D30F800FB30F700F70B3928F80B30
:1000780039283E2835280A128A110C2883120313BE
:100088008C1D4728482859280A128A1176200A12F6
:100098008A1183120313880006080A128A1186201F
:1000A8000A128A11831203138C1172088A00710EC6
:1000B8008300FE0E7E0E0900F600831603138712D6
:1000C800761D672868286C2875089400871570289D
:1000D8007308750494008711760874048312031357
:1000E800940008000A128A117F200A128A118312CA
:1000F80003131308080083160313141C8428852887
:100108007F280800F000700883120313930008008A
:04400E00D720FF3F79
:00000001FF
