:020000040000FA
:060000000A128A11FC2F18
:100EF000F000700883120313930008008316031395
:100F0000141C832F842F7E2F08000A128A117E273B
:100F10000A128A118312031313080800F3008316C0
:100F200003138712731D952F962F9A2F7208940022
:100F300087159E2F7008720494008711730871043E
:100F4000831203139400080083160313811383167E
:100F500003178901831603139F01FF308600880160
:100F6000FF30831203138600831603138713831243
:100F700003138717F001F101F20120300A128A11E0
:100F80008E270A128A118312031387130330F50088
:100F90009730F400F40BCA2FF50BCA2FCF2F831212
:100FA000031306080A128A1178270A128A110A12F4
:100FB0008A1185270A128A118312031388000330CD
:100FC000F5009730F400F40BE32FF50BE32FE82F37
:100FD0008312031387170230F6000430F500BA308D
:100FE000F400F40BF12FF50BF12FF60BF12F0000AD
:100FF000C32F0A128A11002883010A128A11A42F12
:04400E00D720FF3F79
:00000001FF
